{
  "contractName": "BikeRent",
  "abi": [
    {
      "constant": true,
      "inputs": [
        {
          "name": "",
          "type": "uint256"
        }
      ],
      "name": "bikes_id",
      "outputs": [
        {
          "name": "",
          "type": "uint256"
        }
      ],
      "payable": false,
      "stateMutability": "view",
      "type": "function"
    },
    {
      "constant": true,
      "inputs": [
        {
          "name": "",
          "type": "uint256"
        }
      ],
      "name": "users",
      "outputs": [
        {
          "name": "",
          "type": "address"
        }
      ],
      "payable": false,
      "stateMutability": "view",
      "type": "function"
    },
    {
      "constant": true,
      "inputs": [
        {
          "name": "",
          "type": "uint256"
        }
      ],
      "name": "id_to_bike",
      "outputs": [
        {
          "name": "id",
          "type": "uint256"
        },
        {
          "name": "location",
          "type": "string"
        },
        {
          "name": "for_rent",
          "type": "bool"
        },
        {
          "name": "price",
          "type": "uint256"
        },
        {
          "name": "bike_type",
          "type": "string"
        },
        {
          "name": "owner",
          "type": "address"
        },
        {
          "name": "locked",
          "type": "bool"
        },
        {
          "name": "renter",
          "type": "address"
        },
        {
          "name": "max_time",
          "type": "uint256"
        },
        {
          "name": "begin_rent_time",
          "type": "uint256"
        },
        {
          "name": "payed",
          "type": "uint256"
        },
        {
          "name": "key",
          "type": "uint256"
        }
      ],
      "payable": false,
      "stateMutability": "view",
      "type": "function"
    },
    {
      "constant": true,
      "inputs": [
        {
          "name": "",
          "type": "address"
        }
      ],
      "name": "address_to_user",
      "outputs": [
        {
          "name": "user_address",
          "type": "address"
        },
        {
          "name": "id",
          "type": "uint256"
        },
        {
          "name": "name",
          "type": "string"
        },
        {
          "name": "cin",
          "type": "string"
        },
        {
          "name": "mail",
          "type": "string"
        },
        {
          "name": "phone_number",
          "type": "string"
        },
        {
          "name": "Bike_Rented_id",
          "type": "uint256"
        },
        {
          "name": "personal_Bike_id",
          "type": "uint256"
        },
        {
          "name": "keyfirst",
          "type": "uint256"
        },
        {
          "name": "keysecond",
          "type": "uint256"
        }
      ],
      "payable": false,
      "stateMutability": "view",
      "type": "function"
    },
    {
      "inputs": [],
      "payable": false,
      "stateMutability": "nonpayable",
      "type": "constructor"
    },
    {
      "anonymous": false,
      "inputs": [
        {
          "indexed": false,
          "name": "usr_id",
          "type": "uint256"
        },
        {
          "indexed": false,
          "name": "usr_name",
          "type": "string"
        }
      ],
      "name": "NewUser",
      "type": "event"
    },
    {
      "anonymous": false,
      "inputs": [
        {
          "indexed": false,
          "name": "id",
          "type": "uint256"
        },
        {
          "indexed": false,
          "name": "Bike_owner_addr",
          "type": "address"
        }
      ],
      "name": "NewBike",
      "type": "event"
    },
    {
      "anonymous": false,
      "inputs": [
        {
          "indexed": false,
          "name": "addr",
          "type": "address"
        }
      ],
      "name": "user_removed",
      "type": "event"
    },
    {
      "anonymous": false,
      "inputs": [
        {
          "indexed": false,
          "name": "bike_id",
          "type": "uint256"
        },
        {
          "indexed": false,
          "name": "state",
          "type": "bool"
        },
        {
          "indexed": false,
          "name": "location",
          "type": "string"
        },
        {
          "indexed": false,
          "name": "owner_addr",
          "type": "address"
        }
      ],
      "name": "bike_For_rent",
      "type": "event"
    },
    {
      "anonymous": false,
      "inputs": [
        {
          "indexed": false,
          "name": "bike_id",
          "type": "uint256"
        }
      ],
      "name": "Bike_removed",
      "type": "event"
    },
    {
      "anonymous": false,
      "inputs": [
        {
          "indexed": false,
          "name": "bike_id",
          "type": "uint256"
        }
      ],
      "name": "Bike_rent_removed",
      "type": "event"
    },
    {
      "constant": false,
      "inputs": [
        {
          "name": "_user_address",
          "type": "address"
        },
        {
          "name": "_id",
          "type": "uint256"
        },
        {
          "name": "_name",
          "type": "string"
        },
        {
          "name": "_cin",
          "type": "string"
        },
        {
          "name": "_mail",
          "type": "string"
        },
        {
          "name": "_phone_number",
          "type": "string"
        }
      ],
      "name": "add_user",
      "outputs": [],
      "payable": false,
      "stateMutability": "nonpayable",
      "type": "function"
    },
    {
      "constant": false,
      "inputs": [
        {
          "name": "_id",
          "type": "uint256"
        },
        {
          "name": "_position",
          "type": "string"
        },
        {
          "name": "_for_rent",
          "type": "bool"
        },
        {
          "name": "_price",
          "type": "uint256"
        },
        {
          "name": "_bike_type",
          "type": "string"
        }
      ],
      "name": "add_Bike",
      "outputs": [],
      "payable": false,
      "stateMutability": "nonpayable",
      "type": "function"
    },
    {
      "constant": false,
      "inputs": [
        {
          "name": "user_to_remove",
          "type": "address"
        }
      ],
      "name": "Remove_user",
      "outputs": [],
      "payable": false,
      "stateMutability": "nonpayable",
      "type": "function"
    },
    {
      "constant": false,
      "inputs": [
        {
          "name": "id",
          "type": "uint256"
        }
      ],
      "name": "delete_Bike",
      "outputs": [],
      "payable": false,
      "stateMutability": "nonpayable",
      "type": "function"
    },
    {
      "constant": false,
      "inputs": [
        {
          "name": "_mail",
          "type": "string"
        },
        {
          "name": "_phone",
          "type": "string"
        }
      ],
      "name": "edit_profile",
      "outputs": [],
      "payable": false,
      "stateMutability": "nonpayable",
      "type": "function"
    },
    {
      "constant": false,
      "inputs": [],
      "name": "user_post_bike_for_rent",
      "outputs": [],
      "payable": false,
      "stateMutability": "nonpayable",
      "type": "function"
    },
    {
      "constant": false,
      "inputs": [
        {
          "name": "_bike_id",
          "type": "uint256"
        }
      ],
      "name": "admin_post_bike_for_rent",
      "outputs": [],
      "payable": false,
      "stateMutability": "nonpayable",
      "type": "function"
    },
    {
      "constant": false,
      "inputs": [],
      "name": "user_remove_From_rent",
      "outputs": [],
      "payable": false,
      "stateMutability": "nonpayable",
      "type": "function"
    },
    {
      "constant": false,
      "inputs": [
        {
          "name": "id",
          "type": "uint256"
        }
      ],
      "name": "admin_remove_From_rent",
      "outputs": [],
      "payable": false,
      "stateMutability": "nonpayable",
      "type": "function"
    },
    {
      "constant": false,
      "inputs": [
        {
          "name": "b_id",
          "type": "uint256"
        },
        {
          "name": "max_hour",
          "type": "uint256"
        }
      ],
      "name": "Rent_Bike",
      "outputs": [],
      "payable": true,
      "stateMutability": "payable",
      "type": "function"
    },
    {
      "constant": false,
      "inputs": [
        {
          "name": "new_location",
          "type": "string"
        }
      ],
      "name": "stop_rent",
      "outputs": [],
      "payable": true,
      "stateMutability": "payable",
      "type": "function"
    },
    {
      "constant": false,
      "inputs": [
        {
          "name": "b_id",
          "type": "uint256"
        }
      ],
      "name": "openLock",
      "outputs": [],
      "payable": false,
      "stateMutability": "nonpayable",
      "type": "function"
    },
    {
      "constant": false,
      "inputs": [
        {
          "name": "b_id",
          "type": "uint256"
        }
      ],
      "name": "closeLock",
      "outputs": [],
      "payable": false,
      "stateMutability": "nonpayable",
      "type": "function"
    },
    {
      "constant": false,
      "inputs": [],
      "name": "destruct_contract",
      "outputs": [],
      "payable": false,
      "stateMutability": "nonpayable",
      "type": "function"
    },
    {
      "constant": true,
      "inputs": [],
      "name": "generate_Key",
      "outputs": [
        {
          "name": "",
          "type": "uint256"
        }
      ],
      "payable": false,
      "stateMutability": "view",
      "type": "function"
    }
  ],
  "bytecode": "0x608060405234801561001057600080fd5b50336000806101000a81548173ffffffffffffffffffffffffffffffffffffffff021916908373ffffffffffffffffffffffffffffffffffffffff1602179055506137de806100606000396000f3fe608060405260043610610107576000357c0100000000000000000000000000000000000000000000000000000000900463ffffffff1680630f42f11e1461010c57806318d3952d146103c3578063240bb91414610412578063262fd8491461044d5780633068dc5a14610464578063365b98b21461049f5780633babbe841461051a57806363a40ad01461055257806365829c911461060d5780637cdf7eb91461062457806386fd6349146107835780638b11db921461079a5780638e25d772146107c55780639f62ed0714610816578063c32eb57a14610851578063dad914f914610a17578063df4f1bdc14610a52578063e128962814610cb6578063eef3e36614610e35575b600080fd5b34801561011857600080fd5b506103c1600480360360c081101561012f57600080fd5b81019080803573ffffffffffffffffffffffffffffffffffffffff169060200190929190803590602001909291908035906020019064010000000081111561017657600080fd5b82018360208201111561018857600080fd5b803590602001918460018302840111640100000000831117156101aa57600080fd5b91908080601f016020809104026020016040519081016040528093929190818152602001838380828437600081840152601f19601f8201169050808301925050505050505091929192908035906020019064010000000081111561020d57600080fd5b82018360208201111561021f57600080fd5b8035906020019184600183028401116401000000008311171561024157600080fd5b91908080601f016020809104026020016040519081016040528093929190818152602001838380828437600081840152601f19601f820116905080830192505050505050509192919290803590602001906401000000008111156102a457600080fd5b8201836020820111156102b657600080fd5b803590602001918460018302840111640100000000831117156102d857600080fd5b91908080601f016020809104026020016040519081016040528093929190818152602001838380828437600081840152601f19601f8201169050808301925050505050505091929192908035906020019064010000000081111561033b57600080fd5b82018360208201111561034d57600080fd5b8035906020019184600183028401116401000000008311171561036f57600080fd5b91908080601f016020809104026020016040519081016040528093929190818152602001838380828437600081840152601f19601f820116905080830192505050505050509192919290505050610e70565b005b3480156103cf57600080fd5b506103fc600480360360208110156103e657600080fd5b810190808035906020019092919050505061117b565b6040518082815260200191505060405180910390f35b34801561041e57600080fd5b5061044b6004803603602081101561043557600080fd5b810190808035906020019092919050505061119e565b005b34801561045957600080fd5b50610462611379565b005b34801561047057600080fd5b5061049d6004803603602081101561048757600080fd5b810190808035906020019092919050505061140e565b005b3480156104ab57600080fd5b506104d8600480360360208110156104c257600080fd5b810190808035906020019092919050505061158f565b604051808273ffffffffffffffffffffffffffffffffffffffff1673ffffffffffffffffffffffffffffffffffffffff16815260200191505060405180910390f35b6105506004803603604081101561053057600080fd5b8101908080359060200190929190803590602001909291905050506115cd565b005b61060b6004803603602081101561056857600080fd5b810190808035906020019064010000000081111561058557600080fd5b82018360208201111561059757600080fd5b803590602001918460018302840111640100000000831117156105b957600080fd5b91908080601f016020809104026020016040519081016040528093929190818152602001838380828437600081840152601f19601f82011690508083019250505050505050919291929050505061199a565b005b34801561061957600080fd5b50610622612413565b005b34801561063057600080fd5b506107816004803603604081101561064757600080fd5b810190808035906020019064010000000081111561066457600080fd5b82018360208201111561067657600080fd5b8035906020019184600183028401116401000000008311171561069857600080fd5b91908080601f016020809104026020016040519081016040528093929190818152602001838380828437600081840152601f19601f820116905080830192505050505050509192919290803590602001906401000000008111156106fb57600080fd5b82018360208201111561070d57600080fd5b8035906020019184600183028401116401000000008311171561072f57600080fd5b91908080601f016020809104026020016040519081016040528093929190818152602001838380828437600081840152601f19601f8201169050808301925050505050505091929192905050506125f9565b005b34801561078f57600080fd5b506107986126ab565b005b3480156107a657600080fd5b506107af612797565b6040518082815260200191505060405180910390f35b3480156107d157600080fd5b50610814600480360360208110156107e857600080fd5b81019080803573ffffffffffffffffffffffffffffffffffffffff169060200190929190505050612824565b005b34801561082257600080fd5b5061084f6004803603602081101561083957600080fd5b81019080803590602001909291905050506129b6565b005b34801561085d57600080fd5b5061088a6004803603602081101561087457600080fd5b8101908080359060200190929190505050612b0b565b604051808d8152602001806020018c1515151581526020018b8152602001806020018a73ffffffffffffffffffffffffffffffffffffffff1673ffffffffffffffffffffffffffffffffffffffff168152602001891515151581526020018873ffffffffffffffffffffffffffffffffffffffff1673ffffffffffffffffffffffffffffffffffffffff16815260200187815260200186815260200185815260200184815260200183810383528e818151815260200191508051906020019080838360005b8381101561096a57808201518184015260208101905061094f565b50505050905090810190601f1680156109975780820380516001836020036101000a031916815260200191505b5083810382528b818151815260200191508051906020019080838360005b838110156109d05780820151818401526020810190506109b5565b50505050905090810190601f1680156109fd5780820380516001836020036101000a031916815260200191505b509e50505050505050505050505050505060405180910390f35b348015610a2357600080fd5b50610a5060048036036020811015610a3a57600080fd5b8101908080359060200190929190505050612cf5565b005b348015610a5e57600080fd5b50610aa160048036036020811015610a7557600080fd5b81019080803573ffffffffffffffffffffffffffffffffffffffff169060200190929190505050612df1565b604051808b73ffffffffffffffffffffffffffffffffffffffff1673ffffffffffffffffffffffffffffffffffffffff1681526020018a81526020018060200180602001806020018060200189815260200188815260200187815260200186815260200185810385528d818151815260200191508051906020019080838360005b83811015610b3d578082015181840152602081019050610b22565b50505050905090810190601f168015610b6a5780820380516001836020036101000a031916815260200191505b5085810384528c818151815260200191508051906020019080838360005b83811015610ba3578082015181840152602081019050610b88565b50505050905090810190601f168015610bd05780820380516001836020036101000a031916815260200191505b5085810383528b818151815260200191508051906020019080838360005b83811015610c09578082015181840152602081019050610bee565b50505050905090810190601f168015610c365780820380516001836020036101000a031916815260200191505b5085810382528a818151815260200191508051906020019080838360005b83811015610c6f578082015181840152602081019050610c54565b50505050905090810190601f168015610c9c5780820380516001836020036101000a031916815260200191505b509e50505050505050505050505050505060405180910390f35b348015610cc257600080fd5b50610e33600480360360a0811015610cd957600080fd5b810190808035906020019092919080359060200190640100000000811115610d0057600080fd5b820183602082011115610d1257600080fd5b80359060200191846001830284011164010000000083111715610d3457600080fd5b91908080601f016020809104026020016040519081016040528093929190818152602001838380828437600081840152601f19601f8201169050808301925050505050505091929192908035151590602001909291908035906020019092919080359060200190640100000000811115610dad57600080fd5b820183602082011115610dbf57600080fd5b80359060200191846001830284011164010000000083111715610de157600080fd5b91908080601f016020809104026020016040519081016040528093929190818152602001838380828437600081840152601f19601f8201169050808301925050505050505091929192905050506130c5565b005b348015610e4157600080fd5b50610e6e60048036036020811015610e5857600080fd5b810190808035906020019092919050505061344d565b005b6000809054906101000a900473ffffffffffffffffffffffffffffffffffffffff1673ffffffffffffffffffffffffffffffffffffffff163373ffffffffffffffffffffffffffffffffffffffff16141515610ecb57600080fd5b610ed3613549565b610140604051908101604052808873ffffffffffffffffffffffffffffffffffffffff1681526020018781526020018681526020018581526020018481526020018381526020016000815260200160008152602001600081526020016000815250905080600360008973ffffffffffffffffffffffffffffffffffffffff1673ffffffffffffffffffffffffffffffffffffffff16815260200190815260200160002060008201518160000160006101000a81548173ffffffffffffffffffffffffffffffffffffffff021916908373ffffffffffffffffffffffffffffffffffffffff160217905550602082015181600101556040820151816002019080519060200190610fe39291906135b3565b5060608201518160030190805190602001906110009291906135b3565b50608082015181600401908051906020019061101d9291906135b3565b5060a082015181600501908051906020019061103a9291906135b3565b5060c0820151816006015560e082015181600701556101008201518160080155610120820151816009015590505060018790806001815401808255809150509060018203906000526020600020016000909192909190916101000a81548173ffffffffffffffffffffffffffffffffffffffff021916908373ffffffffffffffffffffffffffffffffffffffff160217905550507f3a52155893b2ec6509fcf7e2ecd1f6ee597aa43c6dbb274922f27e856176428186866040518083815260200180602001828103825283818151815260200191508051906020019080838360005b8381101561113757808201518184015260208101905061111c565b50505050905090810190601f1680156111645780820380516001836020036101000a031916815260200191505b50935050505060405180910390a150505050505050565b60028181548110151561118a57fe5b906000526020600020016000915090505481565b6000809054906101000a900473ffffffffffffffffffffffffffffffffffffffff1673ffffffffffffffffffffffffffffffffffffffff163373ffffffffffffffffffffffffffffffffffffffff161415156111f957600080fd5b60016004600083815260200190815260200160002060020160006101000a81548160ff02191690831515021790555060006004600083815260200190815260200160002090507f3cb10bfc595c22edbe35b6d45d8a5e8d008ed5bd2fa507df55d2de3d45ec7fd3828260020160009054906101000a900460ff16836001016000809054906101000a900473ffffffffffffffffffffffffffffffffffffffff166040518085815260200184151515158152602001806020018373ffffffffffffffffffffffffffffffffffffffff1673ffffffffffffffffffffffffffffffffffffffff1681526020018281038252848181546001816001161561010002031660029004815260200191508054600181600116156101000203166002900480156113645780601f1061133957610100808354040283529160200191611364565b820191906000526020600020905b81548152906001019060200180831161134757829003601f168201915b50509550505050505060405180910390a15050565b6000809054906101000a900473ffffffffffffffffffffffffffffffffffffffff1673ffffffffffffffffffffffffffffffffffffffff163373ffffffffffffffffffffffffffffffffffffffff161415156113d457600080fd5b6000809054906101000a900473ffffffffffffffffffffffffffffffffffffffff1673ffffffffffffffffffffffffffffffffffffffff16ff5b6004600082815260200190815260200160002060050160009054906101000a900473ffffffffffffffffffffffffffffffffffffffff1673ffffffffffffffffffffffffffffffffffffffff163373ffffffffffffffffffffffffffffffffffffffff16141561158c57600460008281526020019081526020016000206000808201600090556001820160006114a49190613633565b6002820160006101000a81549060ff021916905560038201600090556004820160006114d09190613633565b6005820160006101000a81549073ffffffffffffffffffffffffffffffffffffffff02191690556005820160146101000a81549060ff02191690556006820160006101000a81549073ffffffffffffffffffffffffffffffffffffffff0219169055600782016000905560088201600090556009820160009055600a82016000905550507ff85f501653f05de3571f7629db24db399a51661e15db23fa48a898180cc031e5816040518082815260200191505060405180910390a15b50565b60018181548110151561159e57fe5b906000526020600020016000915054906101000a900473ffffffffffffffffffffffffffffffffffffffff1681565b806004600084815260200190815260200160002060030154023414801561161b5750600115156004600084815260200190815260200160002060020160009054906101000a900460ff161515145b151561162657600080fd5b336004600084815260200190815260200160002060060160006101000a81548173ffffffffffffffffffffffffffffffffffffffff021916908373ffffffffffffffffffffffffffffffffffffffff16021790555080600460008481526020019081526020016000206003015402600460008481526020019081526020016000206009018190555042600460008481526020019081526020016000206008018190555081600360003373ffffffffffffffffffffffffffffffffffffffff1673ffffffffffffffffffffffffffffffffffffffff168152602001908152602001600020600601819055506000809054906101000a900473ffffffffffffffffffffffffffffffffffffffff1673ffffffffffffffffffffffffffffffffffffffff166004600084815260200190815260200160002060050160009054906101000a900473ffffffffffffffffffffffffffffffffffffffff1673ffffffffffffffffffffffffffffffffffffffff161415611808576000809054906101000a900473ffffffffffffffffffffffffffffffffffffffff1673ffffffffffffffffffffffffffffffffffffffff166108fc349081150290604051600060405180830381858888f19350505050158015611802573d6000803e3d6000fd5b5061190c565b6000809054906101000a900473ffffffffffffffffffffffffffffffffffffffff1673ffffffffffffffffffffffffffffffffffffffff166108fc6064600a340281151561185257fe5b049081150290604051600060405180830381858888f1935050505015801561187e573d6000803e3d6000fd5b506004600083815260200190815260200160002060050160009054906101000a900473ffffffffffffffffffffffffffffffffffffffff1673ffffffffffffffffffffffffffffffffffffffff166108fc6064605034028115156118de57fe5b049081150290604051600060405180830381858888f1935050505015801561190a573d6000803e3d6000fd5b505b6000611916612797565b90508060046000858152602001908152602001600020600a018190555081600460008581526020019081526020016000206007018190555080600360003373ffffffffffffffffffffffffffffffffffffffff1673ffffffffffffffffffffffffffffffffffffffff16815260200190815260200160002060090181905550505050565b600060046000600360003373ffffffffffffffffffffffffffffffffffffffff1673ffffffffffffffffffffffffffffffffffffffff16815260200190815260200160002060060154815260200190815260200160002090506000809054906101000a900473ffffffffffffffffffffffffffffffffffffffff1673ffffffffffffffffffffffffffffffffffffffff168160050160009054906101000a900473ffffffffffffffffffffffffffffffffffffffff1673ffffffffffffffffffffffffffffffffffffffff161415611b54578060070154816008015442031115611af9576000809054906101000a900473ffffffffffffffffffffffffffffffffffffffff1673ffffffffffffffffffffffffffffffffffffffff166108fc3483600801544203846003015402039081150290604051600060405180830381858888f19350505050158015611af3573d6000803e3d6000fd5b50611b4f565b3373ffffffffffffffffffffffffffffffffffffffff166108fc8260080154420383600301540234039081150290604051600060405180830381858888f19350505050158015611b4d573d6000803e3d6000fd5b505b611ff1565b8060070154816008015442031115611e9e57806001016040516020018082805460018160011615610100020316600290048015611bc85780601f10611ba6576101008083540402835291820191611bc8565b820191906000526020600020905b815481529060010190602001808311611bb4575b505091505060405160208183030381529060405280519060200120826040516020018082805190602001908083835b602083101515611c1c5780518252602082019150602081019050602083039250611bf7565b6001836020036101000a038019825116818451168082178552505050505050905001915050604051602081830303815290604052805190602001201415611d7d576000809054906101000a900473ffffffffffffffffffffffffffffffffffffffff1673ffffffffffffffffffffffffffffffffffffffff166108fc6064600a8460070154856008015442030385600301546002020202811515611cbc57fe5b049081150290604051600060405180830381858888f19350505050158015611ce8573d6000803e3d6000fd5b508060050160009054906101000a900473ffffffffffffffffffffffffffffffffffffffff1673ffffffffffffffffffffffffffffffffffffffff166108fc606460508460070154856008015442030385600301546002020202811515611d4b57fe5b049081150290604051600060405180830381858888f19350505050158015611d77573d6000803e3d6000fd5b50611e99565b6000809054906101000a900473ffffffffffffffffffffffffffffffffffffffff1673ffffffffffffffffffffffffffffffffffffffff166108fc6064600a8460070154856008015442030385600301546003020202811515611ddc57fe5b049081150290604051600060405180830381858888f19350505050158015611e08573d6000803e3d6000fd5b508060050160009054906101000a900473ffffffffffffffffffffffffffffffffffffffff1673ffffffffffffffffffffffffffffffffffffffff166108fc606460508460070154856008015442030385600301546003020202811515611e6b57fe5b049081150290604051600060405180830381858888f19350505050158015611e97573d6000803e3d6000fd5b505b611ff0565b806001016040516020018082805460018160011615610100020316600290048015611f005780601f10611ede576101008083540402835291820191611f00565b820191906000526020600020905b815481529060010190602001808311611eec575b505091505060405160208183030381529060405280519060200120826040516020018082805190602001908083835b602083101515611f545780518252602082019150602081019050602083039250611f2f565b6001836020036101000a038019825116818451168082178552505050505050905001915050604051602081830303815290604052805190602001201415611fef573373ffffffffffffffffffffffffffffffffffffffff166108fc826008015442038360070154038360030154029081150290604051600060405180830381858888f19350505050158015611fed573d6000803e3d6000fd5b505b5b5b600160046000600360003373ffffffffffffffffffffffffffffffffffffffff1673ffffffffffffffffffffffffffffffffffffffff16815260200190815260200160002060060154815260200190815260200160002060020160006101000a81548160ff021916908315150217905550600060046000600360003373ffffffffffffffffffffffffffffffffffffffff1673ffffffffffffffffffffffffffffffffffffffff16815260200190815260200160002060060154815260200190815260200160002060060160006101000a81548173ffffffffffffffffffffffffffffffffffffffff021916908373ffffffffffffffffffffffffffffffffffffffff160217905550600160046000600360003373ffffffffffffffffffffffffffffffffffffffff1673ffffffffffffffffffffffffffffffffffffffff16815260200190815260200160002060060154815260200190815260200160002060050160146101000a81548160ff021916908315150217905550600060046000600360003373ffffffffffffffffffffffffffffffffffffffff1673ffffffffffffffffffffffffffffffffffffffff16815260200190815260200160002060060154815260200190815260200160002060070181905550600060046000600360003373ffffffffffffffffffffffffffffffffffffffff1673ffffffffffffffffffffffffffffffffffffffff16815260200190815260200160002060060154815260200190815260200160002060080181905550600060046000600360003373ffffffffffffffffffffffffffffffffffffffff1673ffffffffffffffffffffffffffffffffffffffff168152602001908152602001600020600601548152602001908152602001600020600901819055508160046000600360003373ffffffffffffffffffffffffffffffffffffffff1673ffffffffffffffffffffffffffffffffffffffff16815260200190815260200160002060060154815260200190815260200160002060010190805190602001906122f192919061367b565b506000600360003373ffffffffffffffffffffffffffffffffffffffff1673ffffffffffffffffffffffffffffffffffffffff168152602001908152602001600020600601819055506000612344612797565b905080600360008460050160009054906101000a900473ffffffffffffffffffffffffffffffffffffffff1673ffffffffffffffffffffffffffffffffffffffff1673ffffffffffffffffffffffffffffffffffffffff168152602001908152602001600020600801819055508060046000600360003373ffffffffffffffffffffffffffffffffffffffff1673ffffffffffffffffffffffffffffffffffffffff168152602001908152602001600020600601548152602001908152602001600020600a0181905550505050565b600160046000600360003373ffffffffffffffffffffffffffffffffffffffff1673ffffffffffffffffffffffffffffffffffffffff16815260200190815260200160002060070154815260200190815260200160002060020160006101000a81548160ff021916908315150217905550600060046000600360003373ffffffffffffffffffffffffffffffffffffffff1673ffffffffffffffffffffffffffffffffffffffff16815260200190815260200160002060070154815260200190815260200160002090507f3cb10bfc595c22edbe35b6d45d8a5e8d008ed5bd2fa507df55d2de3d45ec7fd381600001548260020160009054906101000a900460ff1683600101336040518085815260200184151515158152602001806020018373ffffffffffffffffffffffffffffffffffffffff1673ffffffffffffffffffffffffffffffffffffffff1681526020018281038252848181546001816001161561010002031660029004815260200191508054600181600116156101000203166002900480156125e55780601f106125ba576101008083540402835291602001916125e5565b820191906000526020600020905b8154815290600101906020018083116125c857829003601f168201915b50509550505050505060405180910390a150565b81600360003373ffffffffffffffffffffffffffffffffffffffff1673ffffffffffffffffffffffffffffffffffffffff168152602001908152602001600020600401908051906020019061264f92919061367b565b5080600360003373ffffffffffffffffffffffffffffffffffffffff1673ffffffffffffffffffffffffffffffffffffffff16815260200190815260200160002060050190805190602001906126a692919061367b565b505050565b600060046000600360003373ffffffffffffffffffffffffffffffffffffffff1673ffffffffffffffffffffffffffffffffffffffff16815260200190815260200160002060070154815260200190815260200160002060020160006101000a81548160ff0219169083151502179055507ff85f501653f05de3571f7629db24db399a51661e15db23fa48a898180cc031e5600360003373ffffffffffffffffffffffffffffffffffffffff1673ffffffffffffffffffffffffffffffffffffffff168152602001908152602001600020600701546040518082815260200191505060405180910390a1565b6000806103844233604051602001808381526020018273ffffffffffffffffffffffffffffffffffffffff1673ffffffffffffffffffffffffffffffffffffffff166c0100000000000000000000000002815260140192505050604051602081830303815290604052805190602001206001900481151561281457fe5b0690506064810190508091505090565b6000809054906101000a900473ffffffffffffffffffffffffffffffffffffffff1673ffffffffffffffffffffffffffffffffffffffff163373ffffffffffffffffffffffffffffffffffffffff1614151561287f57600080fd5b600360008273ffffffffffffffffffffffffffffffffffffffff1673ffffffffffffffffffffffffffffffffffffffff168152602001908152602001600020600080820160006101000a81549073ffffffffffffffffffffffffffffffffffffffff021916905560018201600090556002820160006128fe9190613633565b60038201600061290e9190613633565b60048201600061291e9190613633565b60058201600061292e9190613633565b600682016000905560078201600090556008820160009055600982016000905550507f46779ab96631e2b583a0e03f6fc284f0b9c038ae37a09d9af2728d8892ea5bc281604051808273ffffffffffffffffffffffffffffffffffffffff1673ffffffffffffffffffffffffffffffffffffffff16815260200191505060405180910390a150565b6000809054906101000a900473ffffffffffffffffffffffffffffffffffffffff1673ffffffffffffffffffffffffffffffffffffffff163373ffffffffffffffffffffffffffffffffffffffff16141515612a1157600080fd5b6000809054906101000a900473ffffffffffffffffffffffffffffffffffffffff1673ffffffffffffffffffffffffffffffffffffffff166004600083815260200190815260200160002060050160009054906101000a900473ffffffffffffffffffffffffffffffffffffffff1673ffffffffffffffffffffffffffffffffffffffff16141515612aa257600080fd5b60006004600083815260200190815260200160002060020160006101000a81548160ff0219169083151502179055507f2eca40a8ea664ca9b9e4000f6dd778657196eb2811e96b5682eadb6ed773ee1c816040518082815260200191505060405180910390a150565b6004602052806000526040600020600091509050806000015490806001018054600181600116156101000203166002900480601f016020809104026020016040519081016040528092919081815260200182805460018160011615610100020316600290048015612bbd5780601f10612b9257610100808354040283529160200191612bbd565b820191906000526020600020905b815481529060010190602001808311612ba057829003601f168201915b5050505050908060020160009054906101000a900460ff1690806003015490806004018054600181600116156101000203166002900480601f016020809104026020016040519081016040528092919081815260200182805460018160011615610100020316600290048015612c745780601f10612c4957610100808354040283529160200191612c74565b820191906000526020600020905b815481529060010190602001808311612c5757829003601f168201915b5050505050908060050160009054906101000a900473ffffffffffffffffffffffffffffffffffffffff16908060050160149054906101000a900460ff16908060060160009054906101000a900473ffffffffffffffffffffffffffffffffffffffff169080600701549080600801549080600901549080600a015490508c565b80600360003373ffffffffffffffffffffffffffffffffffffffff1673ffffffffffffffffffffffffffffffffffffffff1681526020019081526020016000206008015460046000838152602001908152602001600020600a01541480612db35750600360003373ffffffffffffffffffffffffffffffffffffffff1673ffffffffffffffffffffffffffffffffffffffff1681526020019081526020016000206009015460046000838152602001908152602001600020600a0154145b1515612dbe57600080fd5b60016004600084815260200190815260200160002060050160146101000a81548160ff0219169083151502179055505050565b60036020528060005260406000206000915090508060000160009054906101000a900473ffffffffffffffffffffffffffffffffffffffff1690806001015490806002018054600181600116156101000203166002900480601f016020809104026020016040519081016040528092919081815260200182805460018160011615610100020316600290048015612ec95780601f10612e9e57610100808354040283529160200191612ec9565b820191906000526020600020905b815481529060010190602001808311612eac57829003601f168201915b505050505090806003018054600181600116156101000203166002900480601f016020809104026020016040519081016040528092919081815260200182805460018160011615610100020316600290048015612f675780601f10612f3c57610100808354040283529160200191612f67565b820191906000526020600020905b815481529060010190602001808311612f4a57829003601f168201915b505050505090806004018054600181600116156101000203166002900480601f0160208091040260200160405190810160405280929190818152602001828054600181600116156101000203166002900480156130055780601f10612fda57610100808354040283529160200191613005565b820191906000526020600020905b815481529060010190602001808311612fe857829003601f168201915b505050505090806005018054600181600116156101000203166002900480601f0160208091040260200160405190810160405280929190818152602001828054600181600116156101000203166002900480156130a35780601f10613078576101008083540402835291602001916130a3565b820191906000526020600020905b81548152906001019060200180831161308657829003601f168201915b505050505090806006015490806007015490806008015490806009015490508a565b6000809054906101000a900473ffffffffffffffffffffffffffffffffffffffff1673ffffffffffffffffffffffffffffffffffffffff163373ffffffffffffffffffffffffffffffffffffffff161415801561316557506000600360003373ffffffffffffffffffffffffffffffffffffffff1673ffffffffffffffffffffffffffffffffffffffff1681526020019081526020016000206007015414155b1561316f57600080fd5b6131776136fb565b6101806040519081016040528087815260200186815260200185151581526020018481526020018381526020013373ffffffffffffffffffffffffffffffffffffffff168152602001600015158152602001600073ffffffffffffffffffffffffffffffffffffffff16815260200160008152602001600081526020016131fc612797565b81526020016000815250905085600360003373ffffffffffffffffffffffffffffffffffffffff1673ffffffffffffffffffffffffffffffffffffffff1681526020019081526020016000206007018190555080600460008881526020019081526020016000206000820151816000015560208201518160010190805190602001906132899291906135b3565b5060408201518160020160006101000a81548160ff0219169083151502179055506060820151816003015560808201518160040190805190602001906132d09291906135b3565b5060a08201518160050160006101000a81548173ffffffffffffffffffffffffffffffffffffffff021916908373ffffffffffffffffffffffffffffffffffffffff16021790555060c08201518160050160146101000a81548160ff02191690831515021790555060e08201518160060160006101000a81548173ffffffffffffffffffffffffffffffffffffffff021916908373ffffffffffffffffffffffffffffffffffffffff16021790555061010082015181600701556101208201518160080155610140820151816009015561016082015181600a015590505060028690806001815401808255809150509060018203906000526020600020016000909192909190915055507fc73caef8b4d757c14b15bc8f13d92a7b2fe29e2f74a8a5e32dc2bcacf354a32b8633604051808381526020018273ffffffffffffffffffffffffffffffffffffffff1673ffffffffffffffffffffffffffffffffffffffff1681526020019250505060405180910390a1505050505050565b80600360003373ffffffffffffffffffffffffffffffffffffffff1673ffffffffffffffffffffffffffffffffffffffff1681526020019081526020016000206008015460046000838152602001908152602001600020600a0154148061350b5750600360003373ffffffffffffffffffffffffffffffffffffffff1673ffffffffffffffffffffffffffffffffffffffff1681526020019081526020016000206009015460046000838152602001908152602001600020600a0154145b151561351657600080fd5b60006004600084815260200190815260200160002060050160146101000a81548160ff0219169083151502179055505050565b61014060405190810160405280600073ffffffffffffffffffffffffffffffffffffffff1681526020016000815260200160608152602001606081526020016060815260200160608152602001600081526020016000815260200160008152602001600081525090565b828054600181600116156101000203166002900490600052602060002090601f016020900481019282601f106135f457805160ff1916838001178555613622565b82800160010185558215613622579182015b82811115613621578251825591602001919060010190613606565b5b50905061362f919061378d565b5090565b50805460018160011615610100020316600290046000825580601f106136595750613678565b601f016020900490600052602060002090810190613677919061378d565b5b50565b828054600181600116156101000203166002900490600052602060002090601f016020900481019282601f106136bc57805160ff19168380011785556136ea565b828001600101855582156136ea579182015b828111156136e95782518255916020019190600101906136ce565b5b5090506136f7919061378d565b5090565b6101806040519081016040528060008152602001606081526020016000151581526020016000815260200160608152602001600073ffffffffffffffffffffffffffffffffffffffff168152602001600015158152602001600073ffffffffffffffffffffffffffffffffffffffff168152602001600081526020016000815260200160008152602001600081525090565b6137af91905b808211156137ab576000816000905550600101613793565b5090565b9056fea165627a7a72305820dd483770fe53d0a352cb688f7de1634e399580129ab9540cf30ffd6aa6075e4b0029",
  "source": "pragma solidity ^0.5.0;\r\n\r\ncontract BikeRent{\r\n\r\n    //owner address\r\n    address payable  private  _owner;\r\n\r\n    //constructor initialise owner address\r\n    /* owner can initialise users to be authenticated  / users are aleardy created by the the admin */\r\n    constructor() public{\r\n        _owner = msg.sender;\r\n     //   add_user(0x14723a09acff6d2a60dcdf7aa4aff308fddc160c,1,\"sofien\",\"13009753\",\"sofien.chaouch@gmail.com\",\"55432015\");\r\n\r\n    }\r\n\r\n    //structures\r\n\r\n    // define user struct  X\r\n    struct User {\r\n        address  user_address;\r\n        uint id ;\r\n        string name;\r\n        string cin;\r\n        string mail;\r\n        string phone_number;\r\n        uint Bike_Rented_id;\r\n        uint personal_Bike_id;\r\n        uint keyfirst ;\r\n        uint keysecond ;\r\n\r\n    }\r\n    /*config des contarinte _ pnalit extra */\r\n    //defien bike struct\r\n    struct Bike {\r\n        uint id ;\r\n        string location ;\r\n        bool for_rent;\r\n        uint price;\r\n        string bike_type;\r\n        address payable owner;\r\n        bool locked;\r\n        //rent mesurments\r\n        address renter;\r\n        uint max_time ;\r\n        uint begin_rent_time;\r\n        uint payed;\r\n        uint key;\r\n\r\n    }\r\n\r\n\r\n    //Modifiers\r\n\r\n    // Modifier Only contract owner can do this\r\n    modifier onlyOwner() {\r\n        require(\r\n            msg.sender == _owner\r\n\r\n        );\r\n        _;\r\n    }\r\n\r\n    //user can open the lock if he have the correct key\r\n    modifier HaveKey(uint bike_id){\r\n        require(id_to_bike[bike_id].key ==  address_to_user[msg.sender].keyfirst || id_to_bike[bike_id].key == address_to_user[msg.sender].keysecond);\r\n        _;\r\n    }\r\n\r\n    //ARRAYS AND MAPPINGS\r\n\r\n //   Bike[] public   for_rent;\r\n    address[]  public  users ;\r\n    uint[] public  bikes_id  ;\r\n    mapping (address => User) public  address_to_user;\r\n //   mapping (uint => User) public id_to_user;\r\n//    mapping (address => Bike) public  owner_to_bike ;\r\n    mapping (uint => Bike)  public  id_to_bike;\r\n //   mapping (uint => Bike ) public  Bikes_For_Rent  ;\r\n\r\n\r\n    //events\r\n\r\n    event NewUser(uint usr_id , string usr_name);\r\n    event NewBike(uint id , address Bike_owner_addr );\r\n    event user_removed(address addr);\r\n    event bike_For_rent(uint bike_id ,bool state , string location ,address owner_addr);\r\n    event Bike_removed(uint bike_id);\r\n    event Bike_rent_removed(uint bike_id);\r\n\r\n\r\n\r\n    //fonctions\r\n\r\n    // adding users function only by the contract owner\r\n    function add_user(\r\n        address  _user_address,\r\n        uint _id ,\r\n        string memory _name,\r\n        string memory  _cin,\r\n        string memory _mail,\r\n        string memory _phone_number\r\n        )\r\n        public onlyOwner {\r\n        User memory usr = User(_user_address,_id,_name,_cin,_mail,_phone_number,0,0,0,0);\r\n        address_to_user[_user_address] = usr;\r\n        users.push(_user_address);\r\n        emit NewUser(_id,_name);\r\n\r\n    }\r\n\r\n\r\n\r\n    // adding bike only one allowed per user / owner can add more than one\r\n    function add_Bike(\r\n        uint  _id ,\r\n        string memory _position ,\r\n        bool _for_rent,\r\n        uint  _price,\r\n        string memory _bike_type\r\n\r\n\r\n\r\n        ) public {\r\n        if (msg.sender!= _owner && address_to_user[msg.sender].personal_Bike_id != 0){\r\n            revert();\r\n        }else{\r\n            Bike memory bike = Bike(_id,_position,_for_rent,_price,_bike_type,msg.sender,false,address(0),0,0,generate_Key(),0);\r\n         //   bikes.push(bike);\r\n        //    owner_to_bike[msg.sender] = bike;\r\n            address_to_user[msg.sender].personal_Bike_id = _id;\r\n            id_to_bike[_id]=bike;\r\n            bikes_id.push(_id);\r\n            emit NewBike(_id,msg.sender);\r\n        }\r\n\r\n\r\n    }\r\n\r\n\r\n    // remove users function only allowed for the contract owner\r\n    function Remove_user(address user_to_remove) public  onlyOwner{\r\n        delete address_to_user[user_to_remove];\r\n      /*  for (uint i = 0 ; i< users.length; i++ ){\r\n            if (users[i].user_address == user_to_remove){\r\n                for (uint j = i ; j < users.length - 1; j++) {\r\n                    users[j] = users[j + 1];\r\n                    delete users[users.length - 1];\r\n                    users.length--;\r\n                }\r\n                break;\r\n            }\r\n        }*/\r\n        emit user_removed(user_to_remove);\r\n    }\r\n\r\n    //remove bike from the platform\r\n    function delete_Bike(uint id) public  {\r\n        if(msg.sender == id_to_bike[id].owner){\r\n            delete id_to_bike[id];\r\n       //     delete owner_to_bike[msg.sender];\r\n       /*   for (uint i = 0 ; i< bikes.length; i++ ){\r\n                if (bikes[i].id == id){\r\n                    for (uint j = i ; j < bikes.length - 1; j++) {\r\n                        bikes[j] = bikes[j + 1];\r\n                        delete bikes[bikes.length - 1];\r\n                        bikes.length--;\r\n                    }\r\n                    break;\r\n                }\r\n            }*/\r\n            emit Bike_removed(id);\r\n        }\r\n    }\r\n\r\n\r\n    // user can modifie only  his mail and phone in his account\r\n    function edit_profile(string memory _mail, string memory _phone ) public {\r\n        address_to_user[msg.sender].mail = _mail;\r\n        address_to_user[msg.sender].phone_number = _phone;\r\n\r\n    }\r\n\r\n\r\n\r\n    //user post his bike for rent\r\n    function user_post_bike_for_rent() public{\r\n       // id_to_bike[address_to_user[msg.sender].personal_Bike_id].for_rent = true ;\r\n        id_to_bike[address_to_user[msg.sender].personal_Bike_id].for_rent = true ;\r\n        Bike storage bike = id_to_bike[address_to_user[msg.sender].personal_Bike_id];\r\n       // Bikes_For_Rent[bike.id]=bike;\r\n        emit bike_For_rent(bike.id,bike.for_rent,bike.location,msg.sender);\r\n    }\r\n\r\n\r\n    // admin can  post post more than one bike by the bike_id\r\n    function admin_post_bike_for_rent(uint _bike_id) public onlyOwner{\r\n        id_to_bike[_bike_id].for_rent = true ;\r\n        Bike storage bike =  id_to_bike[_bike_id];\r\n     //   Bikes_For_Rent[bike.id] = bike ;\r\n        emit bike_For_rent(_bike_id,bike.for_rent,bike.location,_owner);\r\n    }\r\n\r\n\r\n    //user remove make his bike out of service for rent\r\n    function user_remove_From_rent() public{\r\n       // delete Bikes_For_Rent[address_to_user[msg.sender].personal_Bike_id];\r\n        id_to_bike[address_to_user[msg.sender].personal_Bike_id].for_rent = false ;\r\n        emit Bike_removed(address_to_user[msg.sender].personal_Bike_id);\r\n    }\r\n\r\n    // admin remove make his bikes out of service\r\n    function admin_remove_From_rent(uint id) public onlyOwner {\r\n        if (id_to_bike[id].owner != _owner){\r\n            revert();\r\n        }else{\r\n            id_to_bike[id].for_rent = false ;\r\n        //    delete Bikes_For_Rent[id];\r\n        /*  for (uint i = 0 ; i< for_rent.length; i++ ){\r\n                if (for_rent[i].id == id){\r\n                    for (uint j = i ; j < for_rent.length - 1; j++) {\r\n                        for_rent[j] = for_rent[j + 1];\r\n                        delete for_rent[for_rent.length - 1];\r\n                        for_rent.length--;\r\n                    }\r\n                    break;\r\n                }\r\n            }*/\r\n            emit Bike_rent_removed(id);\r\n        }\r\n\r\n    }\r\n\r\n\r\n\r\n\r\n   //user  rent a bike\r\n   //**************** require msg.sender exist\r\n   function Rent_Bike(uint b_id , uint max_hour)  external payable    {\r\n        require (msg.value == id_to_bike[b_id].price*max_hour &&  id_to_bike[b_id].for_rent == true);\r\n\r\n        id_to_bike[b_id].renter = msg.sender;\r\n        id_to_bike[b_id].payed = id_to_bike[b_id].price*max_hour;\r\n        id_to_bike[b_id].begin_rent_time = now ;\r\n        address_to_user[msg.sender].Bike_Rented_id = b_id;\r\n        if(id_to_bike[b_id].owner == _owner ){\r\n            _owner.transfer(msg.value);\r\n\r\n        }else{\r\n            _owner.transfer(msg.value*10/100);\r\n            id_to_bike[b_id].owner.transfer(msg.value*80/100);\r\n        }\r\n        uint key = generate_Key();\r\n        id_to_bike[b_id].key = key ;\r\n        id_to_bike[b_id].max_time = max_hour;\r\n        address_to_user[msg.sender].keysecond = key ;\r\n\r\n\r\n    }\r\n\r\n\r\n    //renter stop and end his renting operation\r\n   function stop_rent(string memory new_location) public payable{\r\n        Bike storage bike = id_to_bike[address_to_user[msg.sender].Bike_Rented_id];\r\n        if(bike.owner == _owner){\r\n            if(now - bike.begin_rent_time >  bike.max_time){\r\n                _owner.transfer ( bike.price* ( (now - bike.begin_rent_time) ) - msg.value );\r\n            }else{\r\n                msg.sender.transfer ( msg.value - bike.price*(now - bike.begin_rent_time) );\r\n\r\n            }\r\n\r\n        }else{\r\n            if(now - bike.begin_rent_time >  bike.max_time){\r\n                if(keccak256(abi.encodePacked(new_location)) == keccak256(abi.encodePacked(bike.location))){\r\n                    _owner.transfer (2* bike.price* ( (now - bike.begin_rent_time) - bike.max_time)*10/100);\r\n                    bike.owner.transfer( 2*bike.price* ( (now - bike.begin_rent_time) - bike.max_time)*80/100);\r\n                }else{\r\n                    _owner.transfer (3* bike.price* ( (now - bike.begin_rent_time) - bike.max_time)*10/100);\r\n                    bike.owner.transfer( 3*bike.price* ( (now - bike.begin_rent_time) - bike.max_time)*80/100);\r\n                }\r\n\r\n            }else{\r\n                if(keccak256(abi.encodePacked(new_location)) == keccak256(abi.encodePacked(bike.location))){\r\n                    msg.sender.transfer ( bike.price* ( bike.max_time - (now - bike.begin_rent_time) ));\r\n                }\r\n\r\n            }\r\n        }\r\n\r\n        id_to_bike[address_to_user[msg.sender].Bike_Rented_id].for_rent = true;\r\n        id_to_bike[address_to_user[msg.sender].Bike_Rented_id].renter = address(0);\r\n        id_to_bike[address_to_user[msg.sender].Bike_Rented_id].locked = true;\r\n        id_to_bike[address_to_user[msg.sender].Bike_Rented_id].max_time = 0;\r\n        id_to_bike[address_to_user[msg.sender].Bike_Rented_id].begin_rent_time = 0;\r\n        id_to_bike[address_to_user[msg.sender].Bike_Rented_id].payed = 0;\r\n        id_to_bike[address_to_user[msg.sender].Bike_Rented_id].location = new_location;\r\n        address_to_user[msg.sender].Bike_Rented_id = 0 ;\r\n        uint key = generate_Key();\r\n        address_to_user[bike.owner].keyfirst = key ;\r\n        id_to_bike[address_to_user[msg.sender].Bike_Rented_id].key = key ;\r\n\r\n\r\n    }\r\n\r\n\r\n    // require key\r\n    function openLock(uint b_id) public  HaveKey(b_id) {\r\n        id_to_bike[b_id].locked = false;\r\n    }\r\n\r\n    //require key\r\n    function closeLock(uint b_id) public HaveKey(b_id){\r\n        id_to_bike[b_id].locked = true;\r\n\r\n    }\r\n\r\n    function destruct_contract() public  onlyOwner{\r\n        selfdestruct(_owner) ;\r\n    }\r\n\r\n    function generate_Key() public view returns (uint) {\r\n        uint randomnumber = uint(keccak256(abi.encodePacked(now, msg.sender))) % 900;\r\n        randomnumber = randomnumber + 100;\r\n        return randomnumber;\r\n    }\r\n\r\n\r\n\r\n\r\n}\r\n",
  "sourcePath": "C:/Users/babayaga/Desktop/ProjetFinal/Dapp/truffle/contracts/BikeRent.sol",
  "compiler": {
    "name": "solc",
    "version": "0.5.0+commit.1d4f565a.Emscripten.clang"
  },
  "schemaVersion": "3.0.9",
  "updatedAt": "2019-05-15T21:26:11.578Z",
  "devdoc": {
    "methods": {}
  },
  "userdoc": {
    "methods": {}
  }
}