{
  "contractName": "simpleIOT",
  "abi": [
    {
      "constant": true,
      "inputs": [],
      "name": "Locked",
      "outputs": [
        {
          "name": "",
          "type": "bool"
        }
      ],
      "payable": false,
      "stateMutability": "view",
      "type": "function"
    },
    {
      "constant": true,
      "inputs": [],
      "name": "for_Rent",
      "outputs": [
        {
          "name": "",
          "type": "bool"
        }
      ],
      "payable": false,
      "stateMutability": "view",
      "type": "function"
    },
    {
      "constant": true,
      "inputs": [],
      "name": "Rented",
      "outputs": [
        {
          "name": "",
          "type": "bool"
        }
      ],
      "payable": false,
      "stateMutability": "view",
      "type": "function"
    },
    {
      "anonymous": false,
      "inputs": [
        {
          "indexed": false,
          "name": "returnValue",
          "type": "bool"
        },
        {
          "indexed": false,
          "name": "id",
          "type": "uint256"
        }
      ],
      "name": "bikeRented",
      "type": "event"
    },
    {
      "anonymous": false,
      "inputs": [
        {
          "indexed": false,
          "name": "returnValue",
          "type": "bool"
        },
        {
          "indexed": false,
          "name": "id",
          "type": "uint256"
        }
      ],
      "name": "rentStop",
      "type": "event"
    },
    {
      "anonymous": false,
      "inputs": [
        {
          "indexed": false,
          "name": "returnValue",
          "type": "bool"
        },
        {
          "indexed": false,
          "name": "id",
          "type": "uint256"
        }
      ],
      "name": "postRent",
      "type": "event"
    },
    {
      "anonymous": false,
      "inputs": [
        {
          "indexed": false,
          "name": "returnValue",
          "type": "bool"
        },
        {
          "indexed": false,
          "name": "id",
          "type": "uint256"
        }
      ],
      "name": "removeRent",
      "type": "event"
    },
    {
      "anonymous": false,
      "inputs": [
        {
          "indexed": false,
          "name": "returnValue",
          "type": "bool"
        },
        {
          "indexed": false,
          "name": "id",
          "type": "uint256"
        }
      ],
      "name": "lock_open",
      "type": "event"
    },
    {
      "anonymous": false,
      "inputs": [
        {
          "indexed": false,
          "name": "returnValue",
          "type": "bool"
        },
        {
          "indexed": false,
          "name": "id",
          "type": "uint256"
        }
      ],
      "name": "lock_close",
      "type": "event"
    },
    {
      "constant": false,
      "inputs": [
        {
          "name": "x",
          "type": "uint8"
        },
        {
          "name": "id",
          "type": "uint256"
        }
      ],
      "name": "getRent",
      "outputs": [
        {
          "name": "",
          "type": "bool"
        }
      ],
      "payable": false,
      "stateMutability": "nonpayable",
      "type": "function"
    },
    {
      "constant": false,
      "inputs": [
        {
          "name": "id",
          "type": "uint256"
        }
      ],
      "name": "stopRent",
      "outputs": [
        {
          "name": "",
          "type": "bool"
        }
      ],
      "payable": false,
      "stateMutability": "nonpayable",
      "type": "function"
    },
    {
      "constant": false,
      "inputs": [
        {
          "name": "id",
          "type": "uint256"
        }
      ],
      "name": "forRent",
      "outputs": [
        {
          "name": "",
          "type": "bool"
        }
      ],
      "payable": false,
      "stateMutability": "nonpayable",
      "type": "function"
    },
    {
      "constant": false,
      "inputs": [
        {
          "name": "id",
          "type": "uint256"
        }
      ],
      "name": "remove_from_rent",
      "outputs": [
        {
          "name": "",
          "type": "bool"
        }
      ],
      "payable": false,
      "stateMutability": "nonpayable",
      "type": "function"
    },
    {
      "constant": false,
      "inputs": [
        {
          "name": "id",
          "type": "uint256"
        }
      ],
      "name": "openLock",
      "outputs": [
        {
          "name": "",
          "type": "bool"
        }
      ],
      "payable": false,
      "stateMutability": "nonpayable",
      "type": "function"
    },
    {
      "constant": false,
      "inputs": [
        {
          "name": "id",
          "type": "uint256"
        }
      ],
      "name": "closeLock",
      "outputs": [
        {
          "name": "",
          "type": "bool"
        }
      ],
      "payable": false,
      "stateMutability": "nonpayable",
      "type": "function"
    }
  ],
  "bytecode": "0x6080604052600a600055600a600155600160035534801561001f57600080fd5b5061057a8061002f6000396000f3fe608060405260043610610099576000357c0100000000000000000000000000000000000000000000000000000000900463ffffffff1680630f2e5b6c1461009e5780633a38bf57146100cd5780636548588e146101205780637e7ec55714610173578063cedab151146101d3578063d80021dc14610202578063dad914f914610255578063e670aa9d146102a8578063eef3e366146102d7575b600080fd5b3480156100aa57600080fd5b506100b361032a565b604051808215151515815260200191505060405180910390f35b3480156100d957600080fd5b50610106600480360360208110156100f057600080fd5b810190808035906020019092919050505061033c565b604051808215151515815260200191505060405180910390f35b34801561012c57600080fd5b506101596004803603602081101561014357600080fd5b810190808035906020019092919050505061038a565b604051808215151515815260200191505060405180910390f35b34801561017f57600080fd5b506101b96004803603604081101561019657600080fd5b81019080803560ff169060200190929190803590602001909291905050506103d9565b604051808215151515815260200191505060405180910390f35b3480156101df57600080fd5b506101e861043b565b604051808215151515815260200191505060405180910390f35b34801561020e57600080fd5b5061023b6004803603602081101561022557600080fd5b810190808035906020019092919050505061044e565b604051808215151515815260200191505060405180910390f35b34801561026157600080fd5b5061028e6004803603602081101561027857600080fd5b810190808035906020019092919050505061049d565b604051808215151515815260200191505060405180910390f35b3480156102b457600080fd5b506102bd6104ec565b604051808215151515815260200191505060405180910390f35b3480156102e357600080fd5b50610310600480360360208110156102fa57600080fd5b81019080803590602001909291905050506104ff565b604051808215151515815260200191505060405180910390f35b6002809054906101000a900460ff1681565b60007e25d636fbdc4c0d74f4051f9ddb31c17928948beda7709dad21fc5a04799a8560018360405180831515151581526020018281526020019250505060405180910390a160019050919050565b60007fb19bbfa478b9524224928d69578a9c21a95b05234692642e658e85475b3dded860018360405180831515151581526020018281526020019250505060405180910390a160019050919050565b600080548360ff161415610434577ff862c12afa1a4ab03fc55207495eb5add14103c969c1d10664b0a7c86f871b7a60018360405180831515151581526020018281526020019250505060405180910390a160019050610435565b5b92915050565b600260009054906101000a900460ff1681565b60007f969ad1e804db7b7fd70bb1d95772098413874e79ebbf4039a98bd38cd62fa28360018360405180831515151581526020018281526020019250505060405180910390a160019050919050565b60007fe44bcc5ddb69568c5441025bdc52b6177ad173b751df51777c48c6596b97c64660018360405180831515151581526020018281526020019250505060405180910390a160019050919050565b600260019054906101000a900460ff1681565b60007fe44bcc5ddb69568c5441025bdc52b6177ad173b751df51777c48c6596b97c64660018360405180831515151581526020018281526020019250505060405180910390a16001905091905056fea165627a7a72305820dd9565bdc219f489c98ffba0f678298bfa0f217ea17bb544d6650f537f0884960029",
  "source": "pragma solidity >=0.4.0 <0.7.0;\r\n\r\ncontract simpleIOT {\r\n    uint bikerent = 10 ;\r\n    uint bikesell = 10 ;\r\n    bool public for_Rent ;\r\n    bool public  Rented ;\r\n    bool public Locked ;   \r\n    uint bike_id = 1;\r\n\r\n    event bikeRented(bool returnValue , uint id);\r\n    function   getRent (uint8 x ,uint id) public  returns (bool){\r\n        if (x==bikerent){\r\n            emit bikeRented(true, id);\r\n            return true ;\r\n        }\r\n    }\r\n    \r\n    event rentStop(bool returnValue , uint id);\r\n    function stopRent (uint id) public  returns (bool){\r\n        \r\n        emit rentStop(true ,  id);\r\n        return true ;\r\n        \r\n    }\r\n    \r\n    event postRent(bool returnValue , uint id) ;\r\n    function forRent (uint id) public  returns (bool){\r\n        \r\n        emit postRent(true, id);\r\n        return true ;\r\n        \r\n    }\r\n    \r\n    \r\n    event removeRent(bool returnValue , uint id );\r\n    function remove_from_rent (uint id) public  returns (bool){\r\n        \r\n        emit removeRent(true ,  id);\r\n        return true ;\r\n        \r\n    }\r\n    \r\n    event lock_open(bool returnValue , uint id );\r\n    function openLock (uint id) public  returns (bool){\r\n        \r\n        emit lock_open(true ,  id);\r\n        return true ;\r\n        \r\n    }\r\n    \r\n    event lock_close(bool returnValue , uint id );\r\n    function closeLock (uint id) public  returns (bool){\r\n        \r\n        emit lock_open(true ,  id);\r\n        return true ;\r\n        \r\n    }\r\n    \r\n    \r\n}",
  "sourcePath": "C:/Users/babayaga/Desktop/ProjetFinal/Dapp/truffle/contracts/simpleIOT.sol",
  "compiler": {
    "name": "solc",
    "version": "0.5.0+commit.1d4f565a.Emscripten.clang"
  },
  "schemaVersion": "3.0.9",
  "updatedAt": "2019-05-12T22:39:57.290Z",
  "devdoc": {
    "methods": {}
  },
  "userdoc": {
    "methods": {}
  }
}